:03000000020006F5
:03005F0002000399
:030003000200C632
:2000620090E6007410F00090E60B7403F00090E6047480F00090E6047402F00090E6047480
:2000820004F00090E6047406F00090E6047408F00090E604E4F00090E60174CBF00090E636
:2000A2001474E0F00090E61A7408F00090E670E4F090E609F00090E6247402F00090E62526
:0A00C200E4F000221200620080FD4D
:06003500E478FFF6D8FD9F
:200013007900E94400601B7A009000D0780175A000E493F2A308B8000205A0D9F4DAF275C3
:02003300A0FF2C
:20003B007800E84400600A790175A000E4F309D8FC7800E84400600C7900900001E4F0A3C3
:04005B00D8FCD9FAFA
:0D0006007581071200CCE582600302000343
:0400CC007582002217
:00000001FF
